:100000000A128A11FC2F00308A000408840A820731
:1000100000345634693465347434203448347534CB
:060020006E346734003469
:100E320038300A128A1143270A128A110C300A1218
:100E42008A1143270A128A1101300A128A11432792
:100E52000A128A110800F200831203130614861084
:100E6200720887000615352F362F000083120313F0
:100E720006110730F1007D30F000F00B3E2FF10B30
:100E82003E2F0800F2008312031306108610720828
:100E9200870006154C2F4D2F0000831203130611F5
:100EA2001430F1007930F000F00B552FF10B552F73
:100EB2005A2F0800F500F301F401722F7308750729
:100EC20084000A128A1103200A128A110A128A1154
:100ED2002C270A128A110130F3070318F40A003092
:100EE200F4077308750784000A128A1103200A1294
:100EF2008A11003A031D7E2F7F2F5F2F0800831671
:100F020003138601831203138601831603138701D9
:100F12008312031387010A128A1119270A128A11EE
:100F22000130F3000030F4000530F5000030F60027
:100F32000A128A11A8270A128A1101300A128A118A
:100F42005B270A128A11A42F0A128A11002873033E
:100F52007404031DAD2FAE2FD12F7608803AFF0007
:100F620080307F02031DB72F01307502031CBA2F98
:100F7200BB2FD12F7608803AFF0080307F02031DFD
:100F8200C42F113075020318C72FC82FD12F75082F
:100F9200FF3E0F39803E0A128A1143270A128A1134
:100FA200023073067404031DD72FD82FFB2F760847
:100FB200803AFF0080307F02031DE12F013075026D
:100FC200031CE42FE52FFB2F7608803AFF008030C8
:100FD2007F02031DEE2F113075020318F12FF22F3D
:100FE200FB2F7508FF3E0F39C03E0A128A114327B4
:0E0FF2000A128A11080083010A128A11802F48
:02400E003A3F37
:00000001FF
