:060000000A128A11C62F4E
:10000A0060300A128A153B210A128A11F201F301A1
:10001A007208283E8400831700080A128A156E2186
:10002A000A128A110130F2070318F30A0030F307A3
:10003A007308803AFF0080307F02031D26280830AB
:10004A007202031C29282A280D2868300A128A15E8
:10005A003B210A128A11F401F5017408203E84003A
:10006A00831700080A128A156E210A128A110130B2
:10007A00F4070318F50A0030F5077508803AFF00FF
:10008A0080307F02031D4B2808307402031C4E285F
:10009A004F28322870300A128A153B210A128A1117
:1000AA00F601F7017608183E8400831700080A1241
:1000BA008A156E210A128A110130F6070318F70A07
:1000CA000030F7077708803AFF0080307F02031D6F
:1000DA00702808307602031C732874285728783051
:1000EA000A128A153B210A128A11F801F9017808C5
:1000FA00103E8400831700080A128A156E210A121C
:10010A008A110130F8070318F90A0030F90779084B
:10011A00803AFF0080307F02031D9528083078025C
:10012A00031C982899287C28080040300A128A154E
:10013A003B210A128A1183120313D801D9018312AF
:10014A0003135808A03E8400831700080A128A1570
:10015A006E210A128A11013083120313D807031879
:10016A00D90A0030D9075908803AFF0080307F0247
:10017A00031DC12808305802031CC428C528A42816
:10018A0048300A128A153B210A128A118312031374
:10019A00DA01DB01831203135A08603E84008317D5
:1001AA0000080A128A156E210A128A110130831276
:1001BA000313DA070318DB0A0030DB075B08803A0F
:1001CA00FF0080307F02031DEC2808305A02031C0E
:1001DA00EF28F028CF2850300A128A153B210A123C
:1001EA008A1183120313DC01DD01831203135C08F5
:1001FA00303E8400831700080A128A156E210A12FB
:10020A008A11013083120313DC070318DD0A003058
:10021A00DD075D08803AFF0080307F02031D172941
:10022A0008305C02031C1A291B29FA2858300A12C2
:10023A008A153B210A128A1183120313DE01DF0198
:10024A00831203135E08583E8400831700080A12BB
:10025A008A156E210A128A11013083120313DE07EE
:10026A000318DF0A0030DF075F08803AFF0080309A
:10027A007F02031D422908305E02031C45294629D4
:10028A00252960300A128A153B210A128A11831223
:10029A000313E001E101831203136008503E840056
:1002AA00831700080A128A156E210A128A11013070
:1002BA0083120313E0070318E10A0030E10761081B
:1002CA00803AFF0080307F02031D6D2908306002EA
:1002DA00031C70297129502968300A128A153B219A
:1002EA000A128A1183120313E201E3018312031330
:1002FA006208483E8400831700080A128A156E2194
:10030A000A128A11013083120313E2070318E30A5F
:10031A000030E3076308803AFF0080307F02031D44
:10032A00982908306202031C9B299C297B2970307A
:10033A000A128A153B210A128A1183120313E40155
:10034A00E501831203136408403E84008317000802
:10035A000A128A156E210A128A11013083120313B6
:10036A00E4070318E50A0030E5076508803AFF004C
:10037A0080307F02031DC32908306402031CC6298A
:10038A00C729A62978300A128A153B210A128A112E
:10039A0083120313E601E701831203136608383E4A
:1003AA008400831700080A128A156E210A128A111C
:1003BA00013083120313E6070318E70A0030E70740
:1003CA006708803AFF0080307F02031DEE2908305B
:1003DA006602031CF129F229D129080083160313A6
:1003EA0086018312031386010A128A1529220A1228
:1003FA008A110A128A1541230A128A1101308312BC
:10040A000313EB000030EC000A128A1541230A128A
:10041A008A110130F2000030F300831203136C08D2
:10042A00F5006B08F4000A128A1509210A128A11CA
:10043A0002300A128A156E210A128A1106308312B4
:10044A000313EA001330E900AD30E800E80B2B2A69
:10045A00E90B2B2AEA0B2B2A0130F2000030F300B9
:10046A00831203136C08F5006B08F4000A128A154C
:10047A0009210A128A1103300A128A156E210A12F8
:10048A008A110130F2000030F300831203136B0863
:10049A00013EF4006C080318013E003EF5000A1202
:1004AA008A1509210A128A1104300A128A156E2144
:1004BA000A128A11063083120313EA001330E90084
:1004CA00AD30E800E80B672AE90B672AEA0B672ACE
:1004DA000130F2000030F300831203136C08F500B8
:1004EA006B08F4000A128A1509210A128A110530CA
:1004FA000A128A156E210A128A110130F20000309E
:10050A00F300831203136B08013EF4006C0803180E
:10051A00013E003EF5000A128A1509210A128A11C3
:10052A0006300A128A156E210A128A1106308312BF
:10053A000313EA001330E900AD30E800E80BA32A00
:10054A00E90BA32AEA0BA32A0130F2000030F300D8
:10055A00831203136C08F5006B08F4000A128A155B
:10056A0009210A128A1107300A128A156E210A1203
:10057A008A110A128A1520240A128A110130F200FD
:10058A000030F300831203136B08013EF4006C0879
:10059A000318013E003EF5000A128A1509210A12C3
:1005AA008A1100300A128A156E210A128A1106303F
:1005BA0083120313EA001330E900AD30E800E80BB8
:1005CA00E42AE90BE42AEA0BE42A0130F2000030BB
:1005DA00F300831203136C08F5006B08F4000A1287
:1005EA008A1509210A128A1101300A128A156E2106
:1005FA000A128A110130F2000030F3008312031349
:10060A006B08013EF4006C080318013E003EF50039
:10061A000A128A1509210A128A1102300A128A1547
:10062A006E210A128A11063083120313EA0013306C
:10063A00E900AD30E800E80B202BE90B202BEA0B90
:10064A00202B0130F2000030F300831203136C08F0
:10065A00F5006B08F4000A128A1509210A128A1198
:10066A0020300A128A156E210A128A110130F2000C
:10067A000030F300831203136B08013EF4006C0888
:10068A000318013E003EF5000A128A1509210A12D2
:10069A008A1103300A128A156E210A128A1106304B
:1006AA0083120313EA001330E900AD30E800E80BC7
:1006BA005C2BE90B5C2BEA0B5C2B013083120313D6
:1006CA00EB070318EC0A0030EC076C08803AFF00CD
:1006DA0080307F02031D732B10306B02031C762BB4
:1006EA00772B092A0A128A1541230A128A11013024
:1006FA00F2000030F3001030F4000030F5000A1266
:10070A008A1509210A128A1102300A128A156E21E3
:10071A000A128A11063083120313EA001330E90021
:10072A00AD30E800E80B972BE90B972BEA0B972BD8
:10073A000A128A1520240A128A110130F2000030A6
:10074A00F3001030F4000030F5000A128A1509216E
:10075A000A128A1104300A128A156E210A128A11A3
:10076A00063083120313EA001330E900AD30E800C3
:10077A00E80BBD2BE90BBD2BEA0BBD2B0130F200B8
:10078A000030F3001030F4000030F5000A128A1528
:10079A0009210A128A1105300A128A156E210A12D3
:1007AA008A11063083120313EA001330E900AD30D0
:1007BA00E800E80BDE2BE90BDE2BEA0BDE2B01301F
:1007CA00F2000030F3001030F4000030F5000A1295
:1007DA008A1509210A128A1106300A128A156E210F
:1007EA000A128A11063083120313EA001330E90051
:1007FA00AD30E800E80BFF2BE90BFF2BEA0BFF2BD0
:10080A000A128A154E250A128A110130F2000030A6
:10081A00F3001030F4000030F5000A128A1509219D
:10082A000A128A1100300A128A156E210A128A11D6
:10083A000230F2000030F3001030F4000030F5000E
:10084A000A128A1509210A128A1101300A128A1516
:10085A006E210A128A11063083120313EA0013303A
:10086A00E900AD30E800E80B382CE90B382CEA0B2C
:10087A00382C0130F2000030F3001030F400003060
:10088A00F5000A128A1509210A128A1102300A127F
:10089A008A156E210A128A110230F2000030F30022
:1008AA001030F4000030F5000A128A1509210A12E4
:1008BA008A1103300A128A156E210A128A11063029
:1008CA0083120313EA001330E900AD30E800E80BA5
:1008DA006C2CE90B6C2CEA0B6C2C0130F20000300A
:1008EA00F3001030F4000030F5000A128A150921CD
:1008FA000A128A1104300A128A156E210A128A1102
:10090A000230F2000030F3001030F4000030F5003D
:10091A000A128A1509210A128A1105300A128A1541
:10092A006E210A128A11063083120313EA00133069
:10093A00E900AD30E800E80BA02CE90BA02CEA0B8B
:10094A00A02C0130F2000030F3001030F400003027
:10095A00F5000A128A1509210A128A1106300A12AA
:10096A008A156E210A128A110230F2000030F30051
:10097A001030F4000030F5000A128A1509210A1213
:10098A008A1107300A128A156E210A128A11063054
:10099A0083120313EA001330E900AD30E800E80BD4
:1009AA00D42CE90BD42CEA0BD42C0A128A15A726CC
:1009BA000A128A110130F2000030F3001030F400FC
:1009CA000030F5000A128A1509210A128A1120300C
:1009DA000A128A156E210A128A110230F2000030B8
:1009EA00F3001030F4000030F5000A128A150921CC
:1009FA000A128A1100300A128A156E210A128A1105
:100A0A00063083120313EA001330E900AD30E80020
:100A1A00E80B0D2DE90B0D2DEA0B0D2D0A128A1587
:100A2A00A7260A128A110230F2000030F3001030B1
:100A3A00F4000030F5000A128A1509210A128A11F7
:100A4A0001300A128A156E210A128A11063083129F
:100A5A000313EA001330E900AD30E800E80B332D48
:100A6A00E90B332DEA0B332D0230F2000030F3008C
:100A7A001030F4000030F5000A128A1509210A1212
:100A8A008A1102300A128A156E210A128A1102305C
:100A9A00F2000030F3000F30F4000030F5000A12C3
:100AAA008A1509210A128A1103300A128A156E213F
:100ABA000A128A11063083120313EA001330E9007E
:100ACA00AD30E800E80B672DE90B672DEA0B672DBF
:100ADA000230F2000030F3001030F4000030F5006C
:100AEA000A128A1509210A128A1104300A128A1571
:100AFA006E210A128A110230F2000030F3000F3020
:100B0A00F4000030F5000A128A1509210A128A1126
:100B1A0005300A128A156E210A128A1106308312CA
:100B2A000313EA001330E900AD30E800E80B9B2D0F
:100B3A00E90B9B2DEA0B9B2D0230F2000030F300EB
:100B4A001030F4000030F5000A128A1509210A1241
:100B5A008A1106300A128A156E210A128A11023087
:100B6A00F2000030F3000F30F4000030F5000A12F2
:100B7A008A1509210A128A1107300A128A156E216A
:100B8A000A128A11063083120313EA001330E900AD
:100B9A00AD30E800E80BCF2DE90BCF2DEA0BCF2DB6
:100BAA000A128A119A200A128A110230F2000030BF
:100BBA00F3001030F4000030F5000A128A150921FA
:100BCA000A128A1100300A128A156E210A128A1133
:100BDA000230F2000030F3000F30F4000030F5006C
:100BEA000A128A1509210A128A1101300A128A1573
:100BFA006E210A128A11063083120313EA00133097
:100C0A00E900AD30E800E80B082EE90B082EEA0BE4
:100C1A00082E0230F2000030F3000A30F4000030EF
:100C2A00F5000A128A1509210A128A1102300A12DB
:100C3A008A156E210A128A11063083120313EA00FA
:100C4A001330E900AD30E800E80B292EE90B292E14
:100C5A00EA0B292E0230F2000030F3001030F400C3
:100C6A000030F5000A128A1509210A128A11003089
:100C7A000A128A156E210A128A110230F200003015
:100C8A00F3000F30F4000030F5000A128A1509212A
:100C9A000A128A1101300A128A156E210A128A1161
:100CAA00023083120313EA004530E900A930E80054
:100CBA00E80B5D2EE90B5D2EEA0B5D2E0E308312DA
:100CCA000313EB000030EC000A128A119A200A1270
:100CDA008A110230F2000030F300831203136C0809
:100CEA00F5006B08F4000A128A1509210A128A1102
:100CFA0003300A128A156E210A128A1102308312EF
:100D0A000313EA004530E900A930E800E80B8B2E0E
:100D1A00E90B8B2EEA0B8B2E0230F2000030F30027
:100D2A00831203136C08F5006B08F4000A128A1583
:100D3A0009210A128A1104300A128A156E210A122E
:100D4A008A11023083120313EA004530E900A93000
:100D5A00E800E80BAE2EE90BAE2EEA0BAE2E0230FF
:100D6A00F2000030F300831203136C08F5006B08DD
:100D7A00F4000A128A1509210A128A1105300A1288
:100D8A008A156E210A128A11023083120313EA00AD
:100D9A004530E900A930E800E80BD12EE90BD12E45
:100DAA00EA0BD12E0230F2000030F3008312031353
:100DBA006C08F5006B08F4000A128A1509210A1258
:100DCA008A1106300A128A156E210A128A11023015
:100DDA0083120313EA004530E900A930E800E80B62
:100DEA00F42EE90BF42EEA0BF42E0230F200003056
:100DFA00F300831203136C08F5006B08F4000A125F
:100E0A008A1509210A128A1107300A128A156E21D7
:100E1A000A128A11023083120313EA004530E900EC
:100E2A00A930E800E80B172FE90B172FEA0B172F49
:100E3A000230F2000030F300831203136C08F5004D
:100E4A006B08F4000A128A1509210A128A11203045
:100E5A000A128A156E210A128A11FF3083120313AD
:100E6A00EB070318EC0AFF30EC076C08803AFF0026
:100E7A0080307F02031D432F0B306B020318462F6D
:100E8A00472F692E0A128A1105200A128A11023086
:100E9A00F2000030F3000A30F4000030F5000A12C4
:100EAA008A1509210A128A1104300A128A156E213A
:100EBA000A128A11023083120313EA004530E9004C
:100ECA00A930E800E80B672FE90B672FEA0B672FB9
:100EDA000230F2000030F3000A30F4000030F5006E
:100EEA000A128A1509210A128A1105300A128A156C
:100EFA006E210A128A11023083120313EA00453066
:100F0A00E900A930E800E80B882FE90B882FEA0BE3
:100F1A00882F0230F2000030F3000A30F40000306B
:100F2A00F5000A128A1509210A128A1106300A12D4
:100F3A008A156E210A128A11023083120313EA00FB
:100F4A004530E900A930E800E80BA92FE90BA92FE1
:100F5A00EA0BA92F0230F2000030F3000A30F40045
:100F6A000030F5000A128A1509210A128A1107307F
:100F7A000A128A156E210A128A11C22F0A128A11BE
:100F8A0000288317F030FD000A30FE008130FF0090
:100F9A00903084000A128A15E6200A128A117030EB
:100FAA00FD000A30FE00E130FF00103084000A1212
:100FBA008A15E6200A128A118313F030FD000930DF
:100FCA00FE00D930FF00A03084000A128A15E620FC
:100FDA000A128A115830FD000930FE00A130FF00C4
:100FEA00203084000A128A15E6200A128A11830127
:060FFA000A128A11F3291E
:1011C4007E088A007F0882000A128A15E2200A1229
:1011D4008A158000840A04087D0603190034FF0A76
:1011E4000319FE0AE628F100831203138610061180
:1011F400710886008615FE28FF2800008312031359
:1012040086114230F000F00B0529000008002A295D
:1012140074087F3E0A128A153B210A128A153A295C
:101224007408BF3E0A128A153B210A128A153A290C
:1012340074088F3E0A128A153B210A128A153A292C
:101244007408CF3E0A128A153B210A128A153A29DC
:101254007308003A03192F2922297208013A031945
:101264000A29033A03191229013A03191A292229CE
:101274000800F1008312031386100611F030710583
:10128400F00006080F3970048600861549294A299A
:1012940000008312031386114230F000F00B502932
:1012A40000007108F00004300310F00DFF3E031D30
:1012B40056298312031306080F3970048600861515
:1012C4006329642900008312031386114230F0005D
:1012D400F00B6A2900000800F1008312031386143E
:1012E4000611F0307105F00006080F39700486000D
:1012F40086157C297D290000831203138611423050
:10130400F000F00B832900007108F0000430031092
:10131400F00DFF3E031D89298312031306080F39BC
:1013240070048600861596299729000083120313FA
:1013340086114230F000F00B9D29000008000034B3
:1013440000341034003418340034103400340034C1
:1013540000340034003410340034003400340034D9
:1013640000340134003400340034013400340034D7
:1013740000340334013401340134033400340034C0
:1013840000340734033403340334073400340034A2
:1013940000340F340734073407340F340034003476
:1013A40000341F340E340F340E341F340034003430
:1013B4000034003400340034003400341134003478
:1013C4000034003400340034003411341F34003449
:1013D400003400340034003411341F341F3400341A
:1013E40000340034003411341F341F341F340034EB
:1013F4000034003411341F341F341F3415340034C6
:10140400003411341F341F341F34153404340034B1
:1014140011341F341F341F341534043400340034A1
:1014240000341E341C341F341C341E340034003485
:1014340000341C3418341E3418341C340034003482
:101444000034183410341C34103418340034283068
:101454000A128A15F5200A128A1528300A128A15EA
:101464003B210A128A150C300A128A153B210A12F2
:101474008A1502300A128A153B210A128A15213074
:10148400F3007630F200F20B452AF30B452A0000F4
:1014940002300A128A153B210A128A158230F3009F
:1014A400DD30F200F20B542AF30B542A592A02308D
:1014B4000A128A153B210A128A158230F300DD30A4
:1014C400F200F20B632AF30B632A682A80300A12B3
:1014D4008A153B210A128A15831203138601C03030
:1014E4000A128A153B210A128A15831203138601F4
:1014F4000C300A128A153B210A128A15080000349E
:101504000034013400340334003401340034003432
:101514000034003400340134003400340034003426
:1015240000341034003400340034103400340034F7
:1015340000341834103410341034183400340034A7
:1015440000341C341834183418341C340034003477
:1015540000341E341C341C341C341E340034003457
:1015640000341F340E341E340E341F3400341F3440
:101574001F341F34153404340034003400341F3451
:101584001F341534043400340034003400341F3460
:101594001534043400340034003400340034153479
:1015A400043400340034003400340034003404348F
:1015B4000034003400340034003400340034023485
:1015C400083401341434013408340134043400344C
:1015D4000834003405340034093400340034003451
:1015E400003400340C340E3400340034003400343D
:1015F400003400340C340D3400340034003400342E
:10160400003400340C340C3400340034003400341E
:101614000034003400341034003400340034003416
:10162400003400340034083400340034003400340E
:101634000034003400340434003400340034003402
:1016440000340034003402340034003400340034F4
:1016540000340034003401340034003400340034E5
:101664000034073403340F340334073400340034B3
:10167400003403340134073401340334003450306B
:101684000A128A153B210A128A15F201F301720823
:10169400503E8400831300080A128A156E210A1230
:1016A4008A150130F2070318F30A0030F3077308B0
:1016B400803AFF0080307F02031D622B08307202E3
:1016C400031C652B662B492B58300A128A153B21C3
:1016D4000A128A15F401F5017408483E8400831344
:1016E40000080A128A156E210A128A150130F407BD
:1016F4000318F50A0030F5077508803AFF008030BA
:101704007F02031D872B08307402031C8A2B8B2B4A
:101714006E2B60300A128A153B210A128A15F601D3
:10172400F7017608283E8400831300080A128A15FC
:101734006E210A128A150130F6070318F70A0030E1
:10174400F7077708803AFF0080307F02031DAC2B37
:1017540008307602031CAF2BB02B932B68300A128F
:101764008A153B210A128A15F801F9017808403ECE
:101774008400831300080A128A156E210A128A153E
:101784000130F8070318F90A0030F9077908803A9C
:10179400FF0080307F02031DD12B08307802031C28
:1017A400D42BD52BB82B70300A128A153B210A1280
:1017B4008A15FA01FB017A08203E8400831300088D
:1017C4000A128A156E210A128A150130FA070318C3
:1017D400FB0A0030FB077B08803AFF0080307F0261
:1017E400031DF62B08307A02031CF92BFA2BDD2B90
:1017F40078300A128A153B210A128A15FC01FD0170
:101804007C08383E8400831300080A128A156E216E
:101814000A128A150130FC070318FD0A0030FD077F
:101824007D08803AFF0080307F02031D1B2C0830A6
:101834007C02031C1E2C1F2C022C080040300A12B0
:101844008A153B210A128A1583120313D801D90180
:10185400831203135808E83E8400831300080A1215
:101864008A156E210A128A15013083120313D807D0
:101874000318D90A0030D9075908803AFF0080308C
:101884007F02031D472C08305802031C4A2C4B2CA2
:101894002A2C48300A128A153B210A128A1583120F
:1018A4000313DA01DB01831203135A08303E840068
:1018B400831300080A128A156E210A128A15013050
:1018C40083120313DA070318DB0A0030DB075B0813
:1018D400803AFF0080307F02031D722C08305A02C8
:1018E400031C752C762C552C50300A128A153B217A
:1018F4000A128A1583120313DC01DD018312031318
:101904005C08E03E8400831300080A128A156E21E5
:101914000A128A15013083120313DC070318DD0A47
:101924000030DD075D08803AFF0080307F02031D30
:101934009D2C08305C02031CA02CA12C802C583058
:101944000A128A153B210A128A1583120313DE0137
:10195400DF01831203135E08D83E8400831300085A
:101964000A128A156E210A128A1501308312031392
:10197400DE070318DF0A0030DF075F08803AFF0044
:1019840080307F02031DC82C08305E02031CCB2C60
:10199400CC2CAB2C60300A128A153B210A128A1512
:1019A40083120313E001E101831203136008D03EA4
:1019B4008400831300080A128A156E210A128A15FC
:1019C400013083120313E0070318E10A0030E10732
:1019D4006108803AFF0080307F02031DF32C083039
:1019E4006002031CF62CF72CD62C68300A128A15D8
:1019F4003B210A128A1583120313E201E3018312C5
:101A040003136208C83E8400831300080A128A156F
:101A14006E210A128A15013083120313E207031898
:101A2400E30A0030E3076308803AFF0080307F0256
:101A3400031D1E2D08306202031C212D222D012DB1
:101A440070300A128A153B210A128A158312031375
:101A5400E401E501831203136408C03E8400831388
:101A640000080A128A156E210A128A15013083129F
:101A74000313E4070318E50A0030E5076508803A14
:101A8400FF0080307F02031D492D08306402031CCF
:101A94004C2D4D2D2C2D080040300A128A153B2167
:101AA4000A128A1583120313D801D901831203136E
:101AB4005808B83E8400831300080A128A156E2160
:101AC4000A128A15013083120313D8070318D90A9E
:101AD4000030D9075908803AFF0080307F02031D87
:101AE400752D08305802031C782D792D582D483057
:101AF4000A128A153B210A128A1583120313DA018A
:101B0400DB01831203135A08E83E8400831700089C
:101B14000A128A156E210A128A15013083120313E0
:101B2400DA070318DB0A0030DB075B08803AFF00A2
:101B340080307F02031DA02D08305A02031CA32D00
:101B4400A42D832D50300A128A153B210A128A15BE
:101B540083120313DC01DD01831203135C08B03E1E
:101B64008400831300080A128A156E210A128A154A
:101B7400013083120313DC070318DD0A0030DD078C
:101B84005D08803AFF0080307F02031DCB2D0830B2
:101B94005C02031CCE2DCF2DAE2D58300A128A15AF
:101BA4003B210A128A1583120313DE01DF0183121B
:101BB40003135E08E03E8400831700080A128A15A6
:101BC4006E210A128A15013083120313DE070318EB
:101BD400DF0A0030DF075F08803AFF0080307F02B1
:101BE400031DF62D08305E02031CF92DFA2DD92DA4
:101BF40060300A128A153B210A128A1583120313D4
:101C0400E001E101831203136008A83E84008313FA
:101C140000080A128A156E210A128A1501308312ED
:101C24000313E0070318E10A0030E1076108803A72
:101C3400FF0080307F02031D212E08306002031C48
:101C4400242E252E042E68300A128A153B210A12EE
:101C54008A1583120313E201E3018312031362085A
:101C6400D83E8400831700080A128A156E210A12CE
:101C74008A15013083120313E2070318E30A0030C4
:101C8400E3076308803AFF0080307F02031D4C2E77
:101C940008306202031C4F2E502E2F2E70300A1271
:101CA4008A153B210A128A1583120313E401E50104
:101CB400831203136408A03E8400831300080A12ED
:101CC4008A156E210A128A15013083120313E40760
:101CD4000318E50A0030E5076508803AFF00803004
:101CE4007F02031D772E08306402031C7A2E7B2E9C
:101CF4005A2E78300A128A153B210A128A15831249
:101D04000313E601E701831203136608D03E84003F
:101D1400831700080A128A156E210A128A150130E7
:101D240083120313E6070318E70A0030E70767087E
:101D3400803AFF0080307F02031DA22E0830660225
:101D4400031CA52EA62E852E080040300A128A15E3
:101D54003B210A128A1583120313D801D901831275
:101D640003135808C83E8400831700080A128A1512
:101D74006E210A128A15013083120313D80703183F
:101D8400D90A0030D9075908803AFF0080307F0211
:101D9400031DCE2E08305802031CD12ED22EB12E94
:101DA40048300A128A153B210A128A15831203133A
:101DB400DA01DB01831203135A08C03E840083173F
:101DC40000080A128A156E210A128A15013083123C
:101DD4000313DA070318DB0A0030DB075B08803AD9
:101DE400FF0080307F02031DF92E08305A02031CC5
:101DF400FC2EFD2EDC2E50300A128A153B210A12CD
:101E04008A1583120313DC01DD01831203135C08BA
:101E1400B83E8400831700080A128A156E210A123C
:101E24008A15013083120313DC070318DD0A00301E
:101E3400DD075D08803AFF0080307F02031D242FF8
:101E440008305C02031C272F282F072F58300A1252
:101E54008A153B210A128A1583120313DE01DF015E
:101E6400831203135E08983E8400831700080A1245
:101E74008A156E210A128A15013083120313DE07B4
:101E84000318DF0A0030DF075F08803AFF00803064
:101E94007F02031D4F2F08305E02031C522F532F65
:101EA400322F60300A128A153B210A128A158312D6
:101EB4000313E001E101831203136008B03E8400C0
:101EC400831700080A128A156E210A128A15013036
:101ED40083120313E0070318E10A0030E1076108E5
:101EE400803AFF0080307F02031D7A2F08306002A1
:101EF400031C7D2F7E2F5D2F68300A128A153B212B
:101F04000A128A1583120313E201E30183120313F5
:101F14006208903E8400831700080A128A156E2115
:101F24000A128A15013083120313E2070318E30A25
:101F34000030E3076308803AFF0080307F02031D0E
:101F4400A52F08306202031CA82FA92F882F7030F8
:101F54000A128A153B210A128A1583120313E4011B
:101F6400E501831203136408A83E84008317000864
:101F74000A128A156E210A128A150130831203137C
:101F8400E4070318E50A0030E5076508803AFF0016
:101F940080307F02031DD02F08306402031CD32F2E
:101FA400D42FB32F78300A128A153B210A128A15CE
:101FB40083120313E601E701831203136608683EE4
:101FC4008400831700080A128A156E210A128A15E2
:101FD400013083120313E6070318E70A0030E7070A
:101FE4006708803AFF0080307F02031DFB2F083012
:0C1FF4006602031CFE2FFF2FDE2F0800EA
:02400E003A3F37
:00000001FF
